:0D040F0068692C6C697A61726436363600BB
:100323001203EC7BFF7A04790F7D017F0112036FC7
:100333001200038F22E52260F7FB7A00750C027D21
:08034300017F0212034B80E868
:10039200D3EF9400EE940040147D727C00ED1D704A
:0D03A200011CED4C70F7EF1F70E61E80E3AC
:0103AF00222B
:06040000C2A58F80D2A707
:080406007F027EEFDEFEDFFC49
:01040E0022CB
:0A042800C2A6120400C2A7020406D7
:1003B000CFCDCFCECCCE1201CB7C007D0A1201CBAB
:0403C000ED2430FFF9
:0A03C400D2A6120400C2A70204062C
:1003CE00AE07EEFB7A0064017004ED148009EB6455
:0E03DE00024A7009ED243F4480FF12042822D9
:1003EC007F381204287F0C1204287F061204287F01
:0403FC0001020428CE
:0A043200AC031203CEAF040203C4B2
:06036F008B088A09890ACF
:100375001203CEE4FDAB08AA09A90A8D8275830094
:0C03850012018CFF60061203C40D80E919
:010391002249
:0A02F200EF24FFFDEE34FFFC7F0A4D
:0802FC008E0D8F0E8C0F8D108A
:100304007F017E00E4FBEBC39510E50F6480F87475
:0E0314008098500AAC0DAD0E1201B90B80E8B6
:0103220022B8
:04034B008A0A8B0B84
:10034F001203CEAA0CEAFF7E00D39400748094802F
:0F035F00400D1202F2AC0AAD0B1203B01A80E689
:01036E00226C
:04026B008B828A8375
:10026F001203CEC3E58364809480400D7F2B12036D
:10027F00C485831685821780107F2D1203C4C3E4B3
:10028F009582F517E49583F516AA15EAFF7E00D33C
:10029F00940074809480400D1202F2AC16AD1712C8
:0502AF0003B01A80E617
:0102B4002227
:040220008A1A8B1B90
:100224001203CEAA1CEAD39400748094804037EA67
:1002340024FFFDE434FFFC7F107E001202FCAC1AA4
:10024400AD1BCFCDCFCECCCE1201CBEF540FFEC31E
:10025400940A74809480EE5004243080022437FF82
:060264001203C41A80BF62
:01026A002271
:0402B5008A1F8B20F1
:1002B9001203CEAA21EAFF7E00D3940074809480B1
:1002C9004026EF24FFFDEE34FFFC7F021202FCAC56
:1002D9001FAD20CFCDCFCECCCE1201CBEF54012410
:0802E90030FF1203C41A80CD9E
:0102F10022EA
:10000300E4F5087590FFC2932097137F14FE120343
:10001300923097FD7F147E0012039275080120969B
:10002300147F147E001203923096FD7F147E00121B
:1000330003927508052095147F147E0012039230F5
:1000430095FD7F147E001203927508092094147F96
:10005300147E001203923094FD7F147E00120392EB
:1000630075080D7590FFC2922097147F147E0012BD
:1000730003923097FD7F147E0012039275080220CD
:1000830096147F147E001203923096FD7F147E0037
:100093001203927508062095147F147E00120392B2
:1000A3003095FD7F147E0012039275080A20941484
:1000B3007F147E001203923094FD7F147E0012039E
:1000C3009275080E7590FFC2912097147F147E00DD
:1000D3001203923097FD7F147E001203927508037A
:1000E3002096147F147E001203923096FD7F147EB7
:1000F300001203927508072095147F147E001203E3
:10010300923095FD7F147E0012039275080B2094A4
:10011300147F147E001203923094FD7F147E00122C
:10012300039275080F7590FFC2902097147F147E79
:10013300001203923097FD7F147E0012039275081C
:10014300042096147F147E001203923096FD7F14D0
:100153007E001203927508082095147F147E001206
:1001630003923095FD7F147E0012039275080C20D4
:1001730094147F147E001203923094FD7F147E004A
:08018300120392750810AF0889
:01018B002251
:0300000002041CDB
:0C041C00787FE4F6D8FD758122020323EE
:10018C00BB010CE58229F582E5833AF583E0225028
:10019C0006E92582F8E622BBFE06E92582F8E22272
:0D01AC00E58229F582E5833AF583E493228C
:1001B900EF8DF0A4A8F0CF8CF0A428CE8DF0A42E5A
:0201C900FE2214
:1001CB00BC000BBE0029EF8DF084FFADF022E4CC18
:1001DB00F875F008EF2FFFEE33FEEC33FCEE9DECE1
:1001EB00984005FCEE9DFE0FD5F0E9E4CEFD22ED27
:1001FB00F8F5F0EE8420D21CFEADF075F008EF2F71
:10020B00FFED33FD4007985006D5F0F222C398FD61
:05021B000FD5F0EA22FE
:00000001FF
