:0904F500012B000128000129007F
:1003EB001200038F2AEF6002F52BE52B75F00A84C0
:1003FB00F528E52B75F00A8485F029E528FD7C00AE
:10040B007F011202ACE529FD7C007F021202AC7F5A
:08041B00037E0012049B80C85F
:10049B00D3EF9400EE940040147D727C00ED1D7040
:0D04AB00011CED4C70F7EF1F70E61E80E3A2
:0104B8002221
:06051F00C2A58F80D2A7E7
:080525007F027EEFDEFEDFFC29
:01052D0022AB
:0A052E00C2A612051FC2A702052590
:1004B900CFCDCFCECCCE1201CB7C007D0A1201CBA1
:0404C900ED2430FFEF
:0A04CD00D2A612051FC2A7020525E2
:1004D700AE07EEFB7A0064017004ED148009EB644B
:0E04E700024A7009ED243F4480FF12052E22C8
:10050B007F3812052E7F0C12052E7F0612052E7FCB
:04051B000102052EA6
:0A053800AC031204D7AF040204CD97
:060478008B308A3189324D
:10047E001204D7E4FDAB30AA31A9328D8275830008
:0C048E0012018CFF60061204CD0D80E905
:01049A00223F
:0A042300EF24FFFDEE34FFFC7F0A1A
:08042D008E2C8F2D8C2E8D2FDB
:100435007F017E00E4FBEBC3952FE52E6480F87405
:0E0445008098500AAC2CAD2D1201B90B80E846
:010453002286
:040454008A1B8B1C58
:100458001204D7AA1DEAFF7E00D39400748094800A
:0F046800400D120423AC1BAD1C1204B91A80E620
:010477002262
:040364008B828A837B
:100368001204D7C3E58364809480400D7F2B120468
:10037800CD85831785821880107F2D1204CDC3E4A4
:100388009582F518E49583F517AA16EAFF7E00D33F
:10039800940074809480400D120423AC17AD181299
:0503A80004B91A80E613
:0103AD00222D
:040319008A208B218A
:10031D001204D7AA22EAD39400748094804037EA5D
:10032D0024FFFDE434FFFC7F107E0012042DAC2071
:10033D00AD21CFCDCFCECCCE1201CBEF540FFEC31E
:10034D00940A74809480EE5004243080022437FF88
:06035D001204CD1A80BF5E
:010363002277
:0403AE008A258B26EB
:1003B2001204D7AA27EAFF7E00D3940074809480A7
:1003C2004026EF24FFFDEE34FFFC7F0212042DAC29
:1003D20025AD26CFCDCFCECCCE1201CBEF5401240A
:0803E20030FF1204CD1A80CD9A
:0103EA0022F0
:10000300E4F5337590FFC2932097137F14FE120417
:100013009B3097FD7F147E0012049B75330120965D
:10002300147F147E0012049B3096FD7F147E001211
:10003300049B7533052095147F147E0012049B30B6
:1000430095FD7F147E0012049B7533092094147F61
:10005300147E0012049B3094FD7F147E0012049BD7
:1000630075330D7590FFC2922097147F147E001292
:10007300049B3097FD7F147E0012049B753302208E
:1000830096147F147E0012049B3096FD7F147E002D
:1000930012049B7533062095147F147E0012049B73
:1000A3003095FD7F147E0012049B75330A2094144F
:1000B3007F147E0012049B3094FD7F147E00120493
:1000C3009B75330E7590FFC2912097147F147E00A9
:1000D30012049B3097FD7F147E0012049B7533033B
:1000E3002096147F147E0012049B3096FD7F147EAD
:1000F3000012049B7533072095147F147E001204AD
:100103009B3095FD7F147E0012049B75330B209466
:10011300147F147E0012049B3094FD7F147E001222
:10012300049B75330F7590F0C2902097147F147E53
:100133000012049B3097FD7F147E0012049B7533DD
:10014300042096147F147E0012049B3096FD7F14C6
:100153007E0012049B7533082095147F147E0012D1
:10016300049B3095FD7F147E0012049B75330C2095
:1001730094147F147E0012049B3094FD7F147E0040
:0801830012049B753310AF3329
:01018B002251
:0C04FE000A083F065B4F666D7D077F6FAC
:1002AC00EF14B4080050549002C175F003A4C58338
:1002BC0025F0C583730202D90202DD0202E10202BB
:1002CC00E50202E90202F10202F9020301D2A48062
:1002DC000ED2A48012D2A48016D2A4801AC2A4D2A8
:1002EC00A3D2A28016C2A4D2A3C2A2800EC2A4C260
:1002FC00A3D2A28006C2A4C2A3C2A274082DF8E69F
:0D030C00F5807F017E0012049BE4F5802245
:03000000020220D9
:0C022000787FE4F6D8FD75813302026798
:10018C00BB010CE58229F582E5833AF583E0225028
:10019C0006E92582F8E622BBFE06E92582F8E22272
:0D01AC00E58229F582E5833AF583E493228C
:1001B900EF8DF0A4A8F0CF8CF0A428CE8DF0A42E5A
:0201C900FE2214
:1001CB00BC000BBE0029EF8DF084FFADF022E4CC18
:1001DB00F875F008EF2FFFEE33FEEC33FCEE9DECE1
:1001EB00984005FCEE9DFE0FD5F0E9E4CEFD22ED27
:1001FB00F8F5F0EE8420D21CFEADF075F008EF2F71
:10020B00FFED33FD4007985006D5F0F222C398FD61
:05021B000FD5F0EA22FE
:10022C000203EBE493A3F8E493A34003F68001F2FA
:10023C0008DFF48029E493A3F85407240CC8C333D3
:10024C00C4540F4420C8834004F456800146F6DFA2
:10025C00E4800B01020408102040809004F5E47E39
:10026C00019360BCA3FF543F30E509541FFEE49397
:10027C00A360010ECF54C025E060A840B8E493A35E
:10028C00FAE493A3F8E493A3C8C582C8CAC583CA89
:10029C00F0A3C8C582C8CAC583CADFE9DEE780BE41
:01050A0000F0
:00000001FF
