:10047A0070617373776F72643A200048692C4C6913
:10048A007A617264004572726F72005472792061E7
:05049A006761696E00BE
:07057700011C00021A000044
:10018C001205407BFF7A04797A7D017F011204C34A
:10019C001200038F1CE51C60F7D3940A74809480C2
:1001AC005041C3E5199404E51894005028AE1AAFD9
:1001BC001B7C007D0A1202848E1A8F1BE51C75F0C5
:1001CC000A84E5F0251BF51BE4351AF51A0519E52B
:1001DC001970020518750C04AB1BAA1A7D017F025D
:1001EC0012049FE51C640B703DE51BB4E112E51A8B
:1001FC00B4100D1205407BFF7A0479857D018018BF
:10020C001205407BFF7A04798F7D017F011204C3B4
:10021C007BFF7A0479957D087F011204C3E4F51AFB
:10022C00F51BF518F519E51C640C600302019C1212
:10023C000540E4F51AF51BF518F5197BFF7A0479DE
:0B024C007A7D017F011204C302019CB7
:1004E600D3EF9400EE940040147D727C00ED1D70F5
:0D04F600011CED4C70F7EF1F70E61E80E357
:0105030022D5
:06055400C2A58F80D2A7B2
:08055A007F027EEFDEFEDFFCF4
:010562002276
:0A056300C2A6120554C2A702055AF1
:10050400CFCDCFCECCCE1202967C007D0A120296BD
:04051400ED2430FFA3
:0A051800D2A6120554C2A702055A2C
:10052200AE07EEFB7A0064017004ED148009EB64FF
:0E053200024A7009ED243F4480FF1205632247
:100540007F381205637F0C1205637F061205637FF7
:04055000010205633C
:0A056D00AC03120522AF04020518CA
:0604C3008B088A09890A7A
:1004C900120522E4FDAB08AA09A90A8D82758300E9
:0C04D900120257FF60061205180D80E9A2
:0104E50022F4
:0A044900EF24FFFDEE34FFFC7F0AF4
:080453008E0D8F0E8C0F8D1031
:10045B007F017E00E4FBEBC39510E50F6480F8741D
:0E046B008098500AAC0DAD0E1202840B80E892
:010479002260
:04049F008A0A8B0B2F
:1004A300120522AA0CEAFF7E00D394007480948084
:0F04B300400D120449AC0AAD0B1205041A80E685
:0104C2002217
:0403C2008B828A831D
:1003C600120522C3E58364809480400D7F2B1205BD
:1003D6001885831685821780107F2D120518C3E4B1
:1003E6009582F517E49583F516AA15EAFF7E00D3E4
:1003F600940074809480400D120449AC16AD171217
:0504060005041A80E668
:01040B0022CE
:040377008A1F8B202E
:10037B00120522AA21EAD39400748094804037EAB4
:10038B0024FFFDE434FFFC7F107E00120453AC1FEE
:10039B00AD20CFCDCFCECCCE120296EF540FFEC3F5
:1003AB00940A74809480EE5004243080022437FF2A
:0603BB001205181A80BFB4
:0103C1002219
:04040C008A248B258E
:10041000120522AA26EAFF7E00D3940074809480FD
:100420004026EF24FFFDEE34FFFC7F02120453ACA4
:1004300024AD25CFCDCFCECCCE120296EF540124E1
:0804400030FF1205181A80CDEF
:010448002291
:10000300E4F5087590FFC2932097137F14FE120442
:10001300E63097FD7F147E001204E67508012096F2
:10002300147F147E001204E63096FD7F147E0012C6
:1000330004E67508052095147F147E001204E6304B
:1000430095FD7F147E001204E67508092094147F41
:10005300147E001204E63094FD7F147E001204E641
:1000630075080D7590FFC2922097147F147E0012BD
:1000730004E63097FD7F147E001204E67508022023
:1000830096147F147E001204E63096FD7F147E00E2
:100093001204E67508062095147F147E001204E608
:1000A3003095FD7F147E001204E675080A2094142F
:1000B3007F147E001204E63094FD7F147E00120448
:1000C300E675080E7590FFC2912097147F147E0089
:1000D3001204E63097FD7F147E001204E6750803D0
:1000E3002096147F147E001204E63096FD7F147E62
:1000F300001204E67508072095147F147E0012048D
:10010300E63095FD7F147E001204E675080B2094FB
:10011300147F147E001204E63094FD7F147E0012D7
:1001230004E675080F7590FFC2902097147F147E24
:10013300001204E63097FD7F147E001204E6750872
:10014300042096147F147E001204E63096FD7F147B
:100153007E001204E67508082095147F147E0012B1
:1001630004E63095FD7F147E001204E675080C202A
:1001730094147F147E001204E63094FD7F147E00F5
:080183001204E6750810AF0834
:01018B002251
:030000000202EB0E
:0C02EB00787FE4F6D8FD7581260203320E
:10025700BB010CE58229F582E5833AF583E022505C
:1002670006E92582F8E622BBFE06E92582F8E222A6
:0D027700E58229F582E5833AF583E49322C0
:10028400EF8DF0A4A8F0CF8CF0A428CE8DF0A42E8E
:02029400FE2248
:10029600BC000BBE0029EF8DF084FFADF022E4CC4C
:1002A600F875F008EF2FFFEE33FEEC33FCEE9DEC15
:1002B600984005FCEE9DFE0FD5F0E9E4CEFD22ED5B
:1002C600F8F5F0EE8420D21CFEADF075F008EF2FA5
:1002D600FFED33FD4007985006D5F0F222C398FD96
:0502E6000FD5F0EA2233
:1002F70002018CE493A3F8E493A34003F68001F290
:1003070008DFF48029E493A3F85407240CC8C33307
:10031700C4540F4420C8834004F456800146F6DFD6
:10032700E4800B0102040810204080900577E47EEA
:10033700019360BCA3FF543F30E509541FFEE493CB
:10034700A360010ECF54C025E060A840B8E493A392
:10035700FAE493A3F8E493A3C8C582C8CAC583CABD
:10036700F0A3C8C582C8CAC583CADFE9DEE780BE75
:01057E00007C
:00000001FF
