:1004F500011100010D00010A00010F00010E0002AB
:07050500080000020B0000DA
:10018C001200038F10E51060537E00D3940A748024
:10019C0094805011E51075F00A8485F0110509E57D
:1001AC000970020508EF640B4E701DE50D640670B6
:1001BC00047F0180027F00EF6008750B00750C0155
:1001CC008006750B00750C02E510640C700EF508BA
:1001DC00F509F511F50EF50FF50AF50DE50C6401B1
:1001EC00450B70087D01FC7F08120385E50C640249
:1001FC00450B7007FDFC7F08120385E5096401457A
:10020C0008700385110EE509640245087003851119
:10021C000FE50964034508700385110AE5096404B8
:10022C004508700385110DE50EFD7C007F0112035E
:10023C0085E50FFD7C007F02120385E50AFD7C003D
:10024C007F03120385E50DFD7C007F041203857F7F
:09025C00037E0012056002018C12
:10056000D3EF9400EE940040147D727C00ED1D707A
:0D057000011CED4C70F7EF1F70E61E80E3DC
:01057D00225B
:0605CE00C2A58F80D2A738
:0805D4007F027EEFDEFEDFFC7A
:0105DC0022FC
:0A05DD00C2A61205CEC2A70205D483
:10057E00CFCDCFCECCCE1202A47C007D0A1202A427
:04058E00ED2430FF29
:0A059200D2A61205CEC2A70205D4BE
:10059C00AE07EEFB7A0064017004ED148009EB6485
:0E05AC00024A7009ED243F4480FF1205DD2253
:1005BA007F381205DD7F0C1205DD7F061205DD7F0F
:0405CA00010205DD48
:0A05E700AC0312059CAF040205925C
:06053D008B368A37893875
:1005430012059CE4FDAB36AA37A9388D827583006A
:0C055300120265FF60061205920D80E99F
:01055F002279
:0A04C400EF24FFFDEE34FFFC7F0A79
:0804CE008E328F338C348D3522
:1004D6007F017E00E4FBEBC39535E5346480F87458
:0E04E6008098500AAC32AD331202920B80E8BF
:0104F40022E5
:040519008A258B267E
:10051D0012059CAA27EAFF7E00D394007480948074
:0F052D00400D1204C4AC25AD2612057E1A80E6DF
:01053C00229C
:04043D008B828A83A1
:1004410012059CC3E58364809480400D7F2B1205C7
:100451009285832185822280107F2D120592C3E42B
:100461009582F522E49583F521AA20EAFF7E00D347
:10047100940074809480400D1204C4AC21AD22120A
:05048100057E1A80E673
:010486002253
:0403F2008A2A8B2B9D
:1003F60012059CAA2CEAD39400748094804037EAB4
:1004060024FFFDE434FFFC7F107E001204CEAC2AEC
:10041600AD2BCFCDCFCECCCE1202A4EF540FFEC360
:10042600940A74809480EE5004243080022437FFAE
:060436001205921A80BFBE
:01043C00229D
:040487008A2F8B30FD
:10048B0012059CAA31EAFF7E00D3940074809480FD
:10049B004026EF24FFFDEE34FFFC7F021204CEACAE
:1004AB002FAD30CFCDCFCECCCE1202A4EF54012442
:0804BB0030FF1205921A80CDFA
:0104C3002216
:10000300E4F5397590FFC2932097137F14FE120510
:10001300603097FD7F147E001205607539012096CC
:10002300147F147E001205603096FD7F147E00124B
:1000330005607539052095147F147E001205603024
:1000430095FD7F147E001205607539092094147F95
:10005300147E001205603094FD7F147E001205604B
:1000630075390D7590FFC2922097147F147E00128C
:1000730005603097FD7F147E0012056075390220FC
:1000830096147F147E001205603096FD7F147E0067
:100093001205607539062095147F147E00120560E1
:1000A3003095FD7F147E0012056075390A20941483
:1000B3007F147E001205603094FD7F147E001205CC
:1000C3006075390E7590FFC2912097147F147E00DE
:1000D3001205603097FD7F147E00120560753903A9
:1000E3002096147F147E001205603096FD7F147EE7
:1000F300001205607539072095147F147E001205E0
:10010300603095FD7F147E0012056075390B2094D5
:10011300147F147E001205603094FD7F147E00125C
:10012300056075390F7590F0C2902097147F147E87
:10013300001205603097FD7F147E0012056075394B
:10014300042096147F147E001205603096FD7F1400
:100153007E001205607539082095147F147E001205
:1001630005603095FD7F147E0012056075390C2003
:1001730094147F147E001205603094FD7F147E007A
:08018300120560753910AF3957
:01018B002251
:0C050C000A123F065B4F666D7D077F6F93
:10038500EF14B40800505490039A75F003A4C58384
:1003950025F0C583730203B20203B60203BA020352
:1003A500BE0203C20203CA0203D20203DAD2A48048
:1003B5000ED2A48012D2A48016D2A4801AC2A4D2CE
:1003C500A3D2A28016C2A4D2A3C2A2800EC2A4C286
:1003D500A3D2A28006C2A4C2A3C2A274122DF8E6BB
:0D03E500F5807F017E00120560E4F58022A6
:030000000202F900
:0C02F900787FE4F6D8FD758139020340DF
:10026500BB010CE58229F582E5833AF583E022504E
:1002750006E92582F8E622BBFE06E92582F8E22298
:0D028500E58229F582E5833AF583E49322B2
:10029200EF8DF0A4A8F0CF8CF0A428CE8DF0A42E80
:0202A200FE223A
:1002A400BC000BBE0029EF8DF084FFADF022E4CC3E
:1002B400F875F008EF2FFFEE33FEEC33FCEE9DEC07
:1002C400984005FCEE9DFE0FD5F0E9E4CEFD22ED4D
:1002D400F8F5F0EE8420D21CFEADF075F008EF2F97
:1002E400FFED33FD4007985006D5F0F222C398FD88
:0502F4000FD5F0EA2225
:1003050002018CE493A3F8E493A34003F68001F281
:1003150008DFF48029E493A3F85407240CC8C333F9
:10032500C4540F4420C8834004F456800146F6DFC8
:10033500E4800B01020408102040809004F5E47E5F
:10034500019360BCA3FF543F30E509541FFEE493BD
:10035500A360010ECF54C025E060A840B8E493A384
:10036500FAE493A3F8E493A3C8C582C8CAC583CAAF
:10037500F0A3C8C582C8CAC583CADFE9DEE780BE67
:0105180000E2
:00000001FF
